S012000062696E2F7265665F6170702E7331399D
S31508000000FC7F002001020008190C00081D0C0008DE
S31508000010210C0008250C0008290C0008150C0008FE
S31508000020150C0008150C0008150C00082D0C000806
S31508000030310C0008150C0008350C0008C507000827
S31508000040150C0008150C0008150C0008150C0008FE
S31508000050150C0008150C0008150C0008150C0008EE
S31508000060150C0008150C0008150C0008150C0008DE
S31508000070150C0008150C0008150C0008150C0008CE
S31508000080150C0008150C0008150C0008150C0008BE
S31508000090150C0008150C0008150C0008150C0008AE
S315080000A0150C0008150C0008150C0008150C00089E
S315080000B0150C0008150C0008150C0008150C00088E
S315080000C0150C0008150C0008150C0008150C00087E
S315080000D0150C0008150C0008150C0008150C00086E
S315080000E0150C0008150C0008150C0008150C00085E
S315080000F0150C0008150C0008150C0008150C00084E
S31508000100150C0008150C0008150C0008150C00083D
S31508000110150C0008150C0008150C0008150C00082D
S31508000120150C0008150C0008150C0008150C00081D
S31508000130150C0008150C0008150C0008150C00080D
S31508000140150C0008150C0008150C0008150C0008FD
S31508000150150C0008150C0008150C0008150C0008ED
S31508000160150C0008150C0008150C0008150C0008DD
S31508000170150C0008150C0008150C0008150C0008CD
S31508000180150C0008150C0008150C0008150C0008BD
S31508000190150C0008150C0008150C0008150C0008AD
S315080001A0150C0008150C0008150C0008150C00089D
S315080001B0150C0008150C0008150C0008150C00088D
S315080001C0150C0008000000000000000000000000F8
S315080001D00000000000000000000000000000000011
S315080001E00000000000000000000000000000000001
S315080001F000000000000000000000000000000000F1
S3150800020008B500F095FA00F0DDFC00F0F1FB00F00F
S31508000210F3FC00F0EDFB024B984700F0E9FBFCE726
S315080002200F0B0008555555555555555555555555A2
S3150800023019070008650A0008844641EA000313F016
S3150800024003036DD1403A41D351F8043B40F8043BCF
S3150800025051F8043B40F8043B51F8043B40F8043B92
S3150800026051F8043B40F8043B51F8043B40F8043B82
S3150800027051F8043B40F8043B51F8043B40F8043B72
S3150800028051F8043B40F8043B51F8043B40F8043B62
S3150800029051F8043B40F8043B51F8043B40F8043B52
S315080002A051F8043B40F8043B51F8043B40F8043B42
S315080002B051F8043B40F8043B51F8043B40F8043B32
S315080002C051F8043B40F8043B403ABDD2303211D3D2
S315080002D051F8043B40F8043B51F8043B40F8043B12
S315080002E051F8043B40F8043B51F8043B40F8043B02
S315080002F0103AEDD20C3205D351F8043B40F8043BD2
S31508000300043AF9D2043208D0D2071CBF11F8013BCF
S3150800031000F8013B01D30B8803806046704700BF95
S31508000320082A13D38B078DD010F003038AD0C3F1A4
S315080003300403D21ADB071CBF11F8013B00F8013B86
S3150800034080D331F8023B20F8023B7BE7043AD9D345
S31508000350013A11F8013B00F8013BF9D20B7803701A
S315080003604B7843708B7883706046704753B94AB9A7
S31508000370002908BF00281CBF4FF0FF314FF0FF309F
S3150800038000F074B9ADF1080C6DE904CE00F006F87A
S31508000390DDF804E0DDE9022304B070472DE9F047F3
S315080003A0089D04468E46002B4DD18A42944669D94B
S315080003B0B2FA82F252B101FA02F3C2F1200120FA2E
S315080003C001F10CFA02FC41EA030E94404FEA1C487C
S315080003D0210CBEFBF8F61FFA8CF708FB16E341EA78
S315080003E0034306FB07F199420AD91CEB030306F1FE
S315080003F0FF3080F01F81994240F21C81023E63441F
S315080004005B1AA4B2B3FBF8F008FB103344EA0344C2
S3150800041000FB07F7A7420AD91CEB040400F1FF33D7
S3150800042080F00A81A74240F207816444023840EA14
S315080004300640E41B00261DB1D4400023C5E900434D
S315080004403146BDE8F0878B4209D9002D00F0EF80D0
S315080004500026C5E9000130463146BDE8F087B3FA03
S3150800046083F6002E4AD18B4202D3824200F2F980EB
S31508000470841A61EB030301209E46002DE0D0C5E9EE
S31508000480004EDDE702B9FFDEB2FA82F2002A40F03A
S315080004909280A1EB0C014FEA1C471FFA8CFE01263D
S315080004A0200CB1FBF7F307FB131140EA01410EFBE1
S315080004B003F0884208D91CEB010103F1FF3802D288
S315080004C0884200F2CB804346091AA4B2B1FBF7F082
S315080004D007FB101144EA01440EFB00FEA64508D9A5
S315080004E01CEB040400F1FF3102D2A64500F2BB80E2
S315080004F00846A4EB0E0440EA03409CE7C6F1200731
S31508000500B34022FA07FC4CEA030C20FA07F401FA76
S3150800051006F31C43F9404FEA1C4900FA06F3B1FBFF
S31508000520F9F8200C1FFA8CFE09FB181140EA014164
S3150800053008FB0EF0884202FA06F20BD91CEB010101
S3150800054008F1FF3A80F08880884240F28580A8F159
S3150800055002086144091AA4B2B1FBF9F009FB1011AB
S3150800056044EA014100FB0EFE8E4508D91CEB010149
S3150800057000F1FF346CD28E456AD90238614440EAEC
S315080005800840A0FB0294A1EB0E01A142C846A6466C
S3150800059056D353D05DB1B3EB080261EB0E0101FAF5
S315080005A007F722FA06F3F1401F43C5E90071002652
S315080005B03146BDE8F087C2F12003D8400CFA02FCA8
S315080005C021FA03F3914001434FEA1C471FFA8CFEB8
S315080005D0B3FBF7F007FB10360B0C43EA064300FBA8
S315080005E00EF69E4204FA02F408D91CEB030300F146
S315080005F0FF382FD29E422DD9023863449B1B89B2FD
S31508000600B3FBF7F607FB163341EA034106FB0EF385
S315080006108B4208D91CEB010106F1FF3816D28B4232
S3150800062014D9023E6144C91A46EA004638E72E46FE
S31508000630284605E70646E3E61846F8E64B45A9D2F6
S31508000640B9EB020864EB0C0E0138A3E74646EAE765
S31508000650204694E74046D1E7D0467BE7023B614413
S3150800066032E7304609E76444023842E7704700BF7C
S315080006700C4BD3F80C2822F44032C3F80C28D3F8D4
S31508000680082842F44032C3F80828D3F8042822F48C
S315080006908072C3F80428D3F8002842F48032C3F8DD
S315080006A0002870470000024010B5094CD4F81438E9
S315080006B043F48073C4F8143800F00CF8D4F81438EE
S315080006C023F48073C4F8143808B900BFFDE710BDD9
S315080006D0000002400120704710B500F0DFF80368FB
S315080006E0BDE810401B68184710B500F095F8094A90
S315080006F01368C01A00280BDB03F5742303F510737F
S31508000700136000F0CBF80368BDE810401B68184773
S3150800071010BD00BF0800002008B500F07DF8034BA7
S3150800072000F5742000F51070186008BD0800002058
S315080007304FF0E02208B5D2F8883D43F47003C2F8BA
S31508000740883D1B4BD3F80028002042F00102C3F86D
S315080007500028C3F80808D3F8002822F0847222F487
S315080007608032C3F80028134AC3F80428D3F80028AF
S3150800077022F48022C3F8002840F20572C3F80C0858
S31508000780C3F8002CD3F8402842F08052C3F840281A
S31508000790094A136843F44043136000F015F9002032
S315080007A000F006F9BDE80840002000F0A7B800BF31
S315080007B000300240103000240070004000487047A6
S315080007C01800002010B5054CD4E9002312F18070FA
S315080007D043F10001C4E9000110BD00BF100000206C
S315080007E008B5FFF7EBFF0278A2B94FF0E0236FF0E8
S315080007F07F411A6159619A611A6942F004021A61C5
S315080008001A6942F002021A611A6942F001021A6173
S315080008100123037008BD000038B5FFF7CFFF037842
S31508000820F3B1114A4FF0E0216FF07F408B69D2E9AE
S3150800083000458969C31A401A834289BFD2E9002351
S3150800084043EA04001043194698BF294654304FF02E
S31508000850A8024FF0000341F10001FFF787FD38BDFC
S3150800086000200146FBE700BF1000002062B6704773
S3150800087000797047704770470379044A83F001038B
S315080008800371536983F020035361704700000240E7
S3150800089010B5044600F042F9204610BD124908B5C5
S315080008A00B6813F001031DD1104A11481371114B3F
S315080008B01360114B5A6922F020025A61DA6822F451
S315080008C04062DA609A6842F440629A605A6822F096
S315080008D020025A601A6842F480621A6001230B608B
S315080008E000F01DF9014808BD1C000020200000206A
S315080008F075080008E40C0008000002401FB52B4CE0
S31508000900D4F8003843F48033C4F80038D4F80038F3
S315080009109A0301D400BFF9E70822A8210DEB0200CB
S3150800092000F0FFF89DF80830002B3AD09DF80E30FD
S315080009305B085A1E9DF80A3043EA0243BDF80C20AC
S3150800094043EA82139DF80F2043EA026343F48003C7
S31508000950C4F80438D4F80838144A43F41443C4F8DD
S315080009600838D4F8003843F08073C4F80038D2F851
S3150800097000389B0101D400BFF9E7D2F8083823F004
S31508000980030343F00203C2F808380023074A019319
S31508000990019B082B05D0D2F8083803F00C03019305
S315080009A0F6E702A800F00CF904B010BD00300240CA
S315080009B0034AD2F8303843F00503C2F83038704796
S315080009C00030024070470000084B45F255521A6045
S315080009D000225A604FF47A729A604CF6CC4282B082
S315080009E01A60DB680193019B02B070470030004033
S315080009F0024B4AF6AA221A60704700BF0030004030
S31508000A0008B50020FFF732FF0020FFF7E9FEBDE832
S31508000A1008400020FFF7D6BFF7B5104E002456F859
S31508000A202430053498470F2CF9D100F06BF80C4D9B
S31508000A300027FFF7F1FE002401902F6001A9301965
S31508000A4000F048F82B6801332B600028F1D11434E4
S31508000A503C2CF3D100F057F8EBE700BF4800002024
S31508000A608400002038B5134C134B2360134B636086
S31508000A7042F6E063A360FFF7CFFE114B6361114BAB
S31508000A80A3610025104BE361E0602561FFF7C4FE12
S31508000A900E4BA3620E4BE36200F27B1046F6781308
S31508000AA0206265622363FFF7B7FE00F21D206063CC
S31508000AB0A56338BD48000020D9060008E9060008E5
S31508000AC071060008A9060008B0710B000B0B000898
S31508000AD00D0B000870B5056904460E460DB143684E
S31508000AE09847A36853B1E1683268521A002A05DBB1
S31508000AF00B44E36063689847012070BD281E18BF41
S31508000B000120FAE77047FFF773BF7047704708B5CB
S31508000B10FFF776FFFFF780FF002008BD704700202B
S31508000B2070474900F0B502238DB2837129464FF606
S31508000B30FF770024A1F1C006F02E0AD8A1F59C760D
S31508000B40002EB8BF7642B6B2BE423EBF8371374664
S31508000B500C460233DBB229440A2B89B2EAD1261E97
S31508000B6018BF01260021022306704170C3714FF693
S31508000B70FF7CB4FBF3F7A7F13005002DB8BF6D4233
S31508000B80ADB265455FFA83FE0DD2B9B2302914BFFE
S31508000B904FF0000C4FF0010C302F80F807E080F87A
S31508000BA001C007D0AC460133102BE2D134B10E1E7A
S31508000BB018BF0126067082708480F0BD2646F9E7C4
S31508000BC07047000008B50748074A0849121AFFF790
S31508000BD033FB0748074ABDE80840121A002100F00F
S31508000BE02BB800BF0000002004000020FC0C000801
S31508000BF0080000209800002038B5044C044DAC428B
S31508000C0003D054F8043D9847F9E738BD3802000880
S31508000C103002000800BFFDE700BFFDE700BFFDE7A3
S31508000C2000BFFDE700BFFDE700BFFDE700BFFDE72A
S31508000C3000BFFDE700BFFDE7830730B548D0541E67
S31508000C40002A3FD0CAB2034601E0013C3AD303F872
S31508000C50012B9D07F9D1032C2DD9CDB245EA0525DF
S31508000C600F2C45EA054536D9A4F1100222F00F0CDF
S31508000C7003F1200EE6444FEA121C03F1100242E982
S31508000C80045542E9025510327245F8D10CF10102B9
S31508000C9014F00C0F03EB021204F00F0C13D0ACF196
S31508000CA0040323F003030433134442F8045B93421A
S31508000CB0FBD10CF003042CB1CAB21C4403F8012B77
S31508000CC09C42FBD130BD64461346002CF4D1F9E7AB
S31508000CD003461446BFE71A46A446E0E700000000AC
S31508000CE00000000079080008710800087708000865
S30908000CF09108000851
S30D08000CF4A8F6FF7F01000000CD
S30908000CFC880000203E
S70508000201EF
